{
  "contractName": "ERC20Coin",
  "abi": [
    {
      "inputs": [],
      "stateMutability": "nonpayable",
      "type": "constructor"
    },
    {
      "anonymous": false,
      "inputs": [
        {
          "indexed": true,
          "internalType": "address",
          "name": "owner",
          "type": "address"
        },
        {
          "indexed": true,
          "internalType": "address",
          "name": "spender",
          "type": "address"
        },
        {
          "indexed": false,
          "internalType": "uint256",
          "name": "value",
          "type": "uint256"
        }
      ],
      "name": "Approval",
      "type": "event"
    },
    {
      "anonymous": false,
      "inputs": [
        {
          "indexed": true,
          "internalType": "address",
          "name": "from",
          "type": "address"
        },
        {
          "indexed": true,
          "internalType": "address",
          "name": "to",
          "type": "address"
        },
        {
          "indexed": false,
          "internalType": "uint256",
          "name": "value",
          "type": "uint256"
        }
      ],
      "name": "Transfer",
      "type": "event"
    },
    {
      "inputs": [
        {
          "internalType": "address",
          "name": "owner",
          "type": "address"
        },
        {
          "internalType": "address",
          "name": "spender",
          "type": "address"
        }
      ],
      "name": "allowance",
      "outputs": [
        {
          "internalType": "uint256",
          "name": "",
          "type": "uint256"
        }
      ],
      "stateMutability": "view",
      "type": "function",
      "constant": true
    },
    {
      "inputs": [
        {
          "internalType": "address",
          "name": "spender",
          "type": "address"
        },
        {
          "internalType": "uint256",
          "name": "amount",
          "type": "uint256"
        }
      ],
      "name": "approve",
      "outputs": [
        {
          "internalType": "bool",
          "name": "",
          "type": "bool"
        }
      ],
      "stateMutability": "nonpayable",
      "type": "function"
    },
    {
      "inputs": [
        {
          "internalType": "address",
          "name": "account",
          "type": "address"
        }
      ],
      "name": "balanceOf",
      "outputs": [
        {
          "internalType": "uint256",
          "name": "",
          "type": "uint256"
        }
      ],
      "stateMutability": "view",
      "type": "function",
      "constant": true
    },
    {
      "inputs": [],
      "name": "count",
      "outputs": [
        {
          "internalType": "uint256",
          "name": "",
          "type": "uint256"
        }
      ],
      "stateMutability": "view",
      "type": "function",
      "constant": true
    },
    {
      "inputs": [],
      "name": "decimals",
      "outputs": [
        {
          "internalType": "uint8",
          "name": "",
          "type": "uint8"
        }
      ],
      "stateMutability": "view",
      "type": "function",
      "constant": true
    },
    {
      "inputs": [
        {
          "internalType": "address",
          "name": "spender",
          "type": "address"
        },
        {
          "internalType": "uint256",
          "name": "subtractedValue",
          "type": "uint256"
        }
      ],
      "name": "decreaseAllowance",
      "outputs": [
        {
          "internalType": "bool",
          "name": "",
          "type": "bool"
        }
      ],
      "stateMutability": "nonpayable",
      "type": "function"
    },
    {
      "inputs": [],
      "name": "fooStore",
      "outputs": [
        {
          "internalType": "bytes32",
          "name": "",
          "type": "bytes32"
        }
      ],
      "stateMutability": "view",
      "type": "function",
      "constant": true
    },
    {
      "inputs": [
        {
          "internalType": "address",
          "name": "spender",
          "type": "address"
        },
        {
          "internalType": "uint256",
          "name": "addedValue",
          "type": "uint256"
        }
      ],
      "name": "increaseAllowance",
      "outputs": [
        {
          "internalType": "bool",
          "name": "",
          "type": "bool"
        }
      ],
      "stateMutability": "nonpayable",
      "type": "function"
    },
    {
      "inputs": [],
      "name": "name",
      "outputs": [
        {
          "internalType": "string",
          "name": "",
          "type": "string"
        }
      ],
      "stateMutability": "view",
      "type": "function",
      "constant": true
    },
    {
      "inputs": [],
      "name": "setMessage",
      "outputs": [
        {
          "internalType": "string",
          "name": "",
          "type": "string"
        }
      ],
      "stateMutability": "view",
      "type": "function",
      "constant": true
    },
    {
      "inputs": [],
      "name": "symbol",
      "outputs": [
        {
          "internalType": "string",
          "name": "",
          "type": "string"
        }
      ],
      "stateMutability": "view",
      "type": "function",
      "constant": true
    },
    {
      "inputs": [],
      "name": "totalSupply",
      "outputs": [
        {
          "internalType": "uint256",
          "name": "",
          "type": "uint256"
        }
      ],
      "stateMutability": "view",
      "type": "function",
      "constant": true
    },
    {
      "inputs": [
        {
          "internalType": "address",
          "name": "to",
          "type": "address"
        },
        {
          "internalType": "uint256",
          "name": "amount",
          "type": "uint256"
        }
      ],
      "name": "transfer",
      "outputs": [
        {
          "internalType": "bool",
          "name": "",
          "type": "bool"
        }
      ],
      "stateMutability": "nonpayable",
      "type": "function"
    },
    {
      "inputs": [
        {
          "internalType": "address",
          "name": "from",
          "type": "address"
        },
        {
          "internalType": "address",
          "name": "to",
          "type": "address"
        },
        {
          "internalType": "uint256",
          "name": "amount",
          "type": "uint256"
        }
      ],
      "name": "transferFrom",
      "outputs": [
        {
          "internalType": "bool",
          "name": "",
          "type": "bool"
        }
      ],
      "stateMutability": "nonpayable",
      "type": "function"
    },
    {
      "inputs": [],
      "name": "sayHello",
      "outputs": [
        {
          "internalType": "string",
          "name": "",
          "type": "string"
        }
      ],
      "stateMutability": "pure",
      "type": "function",
      "constant": true
    },
    {
      "inputs": [
        {
          "internalType": "string",
          "name": "_setText",
          "type": "string"
        }
      ],
      "name": "setText",
      "outputs": [],
      "stateMutability": "nonpayable",
      "type": "function"
    },
    {
      "inputs": [],
      "name": "getText",
      "outputs": [
        {
          "internalType": "string",
          "name": "",
          "type": "string"
        }
      ],
      "stateMutability": "view",
      "type": "function",
      "constant": true
    },
    {
      "inputs": [
        {
          "internalType": "bytes32",
          "name": "foo",
          "type": "bytes32"
        }
      ],
      "name": "sendFoo",
      "outputs": [],
      "stateMutability": "nonpayable",
      "type": "function"
    },
    {
      "inputs": [],
      "name": "getFoo",
      "outputs": [
        {
          "internalType": "bytes32",
          "name": "",
          "type": "bytes32"
        }
      ],
      "stateMutability": "view",
      "type": "function",
      "constant": true
    },
    {
      "inputs": [],
      "name": "increment",
      "outputs": [],
      "stateMutability": "nonpayable",
      "type": "function"
    },
    {
      "inputs": [],
      "name": "getCount",
      "outputs": [
        {
          "internalType": "uint256",
          "name": "",
          "type": "uint256"
        }
      ],
      "stateMutability": "view",
      "type": "function",
      "constant": true
    },
    {
      "inputs": [],
      "name": "decrement",
      "outputs": [],
      "stateMutability": "nonpayable",
      "type": "function"
    }
  ],
  "bytecode": "0x60806040526040518060400160405280600e81526020017f48656c6c6f20536f6c69646974790000000000000000000000000000000000008152506006908051906020019062000051929190620002aa565b5060006007553480156200006457600080fd5b506040518060400160405280601281526020017f53636166666f6c642045544820546f6b656e00000000000000000000000000008152506040518060400160405280600381526020017f53455400000000000000000000000000000000000000000000000000000000008152508160039080519060200190620000e9929190620002aa565b50806004908051906020019062000102929190620002aa565b5050506200012133690bc3a4806cfeba2c00006200012760201b60201c565b62000506565b600073ffffffffffffffffffffffffffffffffffffffff168273ffffffffffffffffffffffffffffffffffffffff1614156200019a576040517f08c379a00000000000000000000000000000000000000000000000000000000081526004016200019190620003bb565b60405180910390fd5b620001ae60008383620002a060201b60201c565b8060026000828254620001c2919062000416565b92505081905550806000808473ffffffffffffffffffffffffffffffffffffffff1673ffffffffffffffffffffffffffffffffffffffff168152602001908152602001600020600082825462000219919062000416565b925050819055508173ffffffffffffffffffffffffffffffffffffffff16600073ffffffffffffffffffffffffffffffffffffffff167fddf252ad1be2c89b69c2b068fc378daa952ba7f163c4a11628f55a4df523b3ef8360405162000280919062000484565b60405180910390a36200029c60008383620002a560201b60201c565b5050565b505050565b505050565b828054620002b890620004d0565b90600052602060002090601f016020900481019282620002dc576000855562000328565b82601f10620002f757805160ff191683800117855562000328565b8280016001018555821562000328579182015b82811115620003275782518255916020019190600101906200030a565b5b5090506200033791906200033b565b5090565b5b80821115620003565760008160009055506001016200033c565b5090565b600082825260208201905092915050565b7f45524332303a206d696e7420746f20746865207a65726f206164647265737300600082015250565b6000620003a3601f836200035a565b9150620003b0826200036b565b602082019050919050565b60006020820190508181036000830152620003d68162000394565b9050919050565b6000819050919050565b7f4e487b7100000000000000000000000000000000000000000000000000000000600052601160045260246000fd5b60006200042382620003dd565b91506200043083620003dd565b9250827fffffffffffffffffffffffffffffffffffffffffffffffffffffffffffffffff03821115620004685762000467620003e7565b5b828201905092915050565b6200047e81620003dd565b82525050565b60006020820190506200049b600083018462000473565b92915050565b7f4e487b7100000000000000000000000000000000000000000000000000000000600052602260045260246000fd5b60006002820490506001821680620004e957607f821691505b602082108114156200050057620004ff620004a1565b5b50919050565b6119c380620005166000396000f3fe608060405234801561001057600080fd5b50600436106101425760003560e01c8063642d8277116100b8578063a9059cbb1161007c578063a9059cbb14610369578063d09de08a14610399578063dd62ed3e146103a3578063e00fe2eb146103d3578063e90847f4146103f1578063ef5fb05b1461040f57610142565b8063642d8277146102b157806370a08231146102cd57806395d89b41146102fd578063a457c2d71461031b578063a87d942c1461034b57610142565b8063243dc8da1161010a578063243dc8da14610201578063261f96171461021f5780632baeceb71461023d578063313ce5671461024757806339509351146102655780635d3a1f9d1461029557610142565b806306661abd1461014757806306fdde0314610165578063095ea7b31461018357806318160ddd146101b357806323b872dd146101d1575b600080fd5b61014f61042d565b60405161015c9190610fb9565b60405180910390f35b61016d610433565b60405161017a919061106d565b60405180910390f35b61019d6004803603810190610198919061112d565b6104c5565b6040516101aa9190611188565b60405180910390f35b6101bb6104e8565b6040516101c89190610fb9565b60405180910390f35b6101eb60048036038101906101e691906111a3565b6104f2565b6040516101f89190611188565b60405180910390f35b610209610521565b604051610216919061120f565b60405180910390f35b61022761052b565b604051610234919061120f565b60405180910390f35b610245610531565b005b61024f61054b565b60405161025c9190611246565b60405180910390f35b61027f600480360381019061027a919061112d565b610554565b60405161028c9190611188565b60405180910390f35b6102af60048036038101906102aa9190611396565b6105fe565b005b6102cb60048036038101906102c6919061140b565b610618565b005b6102e760048036038101906102e29190611438565b610622565b6040516102f49190610fb9565b60405180910390f35b61030561066a565b604051610312919061106d565b60405180910390f35b6103356004803603810190610330919061112d565b6106fc565b6040516103429190611188565b60405180910390f35b6103536107e6565b6040516103609190610fb9565b60405180910390f35b610383600480360381019061037e919061112d565b6107f0565b6040516103909190611188565b60405180910390f35b6103a1610813565b005b6103bd60048036038101906103b89190611465565b61082f565b6040516103ca9190610fb9565b60405180910390f35b6103db6108b6565b6040516103e8919061106d565b60405180910390f35b6103f9610948565b604051610406919061106d565b60405180910390f35b6104176109d6565b604051610424919061106d565b60405180910390f35b60075481565b606060038054610442906114d4565b80601f016020809104026020016040519081016040528092919081815260200182805461046e906114d4565b80156104bb5780601f10610490576101008083540402835291602001916104bb565b820191906000526020600020905b81548152906001019060200180831161049e57829003601f168201915b5050505050905090565b6000806104d0610a13565b90506104dd818585610a1b565b600191505092915050565b6000600254905090565b6000806104fd610a13565b905061050a858285610be6565b610515858585610c72565b60019150509392505050565b6000600554905090565b60055481565b6007600081548092919061054490611535565b9190505550565b60006012905090565b60008061055f610a13565b90506105f3818585600160008673ffffffffffffffffffffffffffffffffffffffff1673ffffffffffffffffffffffffffffffffffffffff16815260200190815260200160002060008973ffffffffffffffffffffffffffffffffffffffff1673ffffffffffffffffffffffffffffffffffffffff168152602001908152602001600020546105ee919061155f565b610a1b565b600191505092915050565b8060069080519060200190610614929190610efd565b5050565b8060058190555050565b60008060008373ffffffffffffffffffffffffffffffffffffffff1673ffffffffffffffffffffffffffffffffffffffff168152602001908152602001600020549050919050565b606060048054610679906114d4565b80601f01602080910402602001604051908101604052809291908181526020018280546106a5906114d4565b80156106f25780601f106106c7576101008083540402835291602001916106f2565b820191906000526020600020905b8154815290600101906020018083116106d557829003601f168201915b5050505050905090565b600080610707610a13565b90506000600160008373ffffffffffffffffffffffffffffffffffffffff1673ffffffffffffffffffffffffffffffffffffffff16815260200190815260200160002060008673ffffffffffffffffffffffffffffffffffffffff1673ffffffffffffffffffffffffffffffffffffffff168152602001908152602001600020549050838110156107cd576040517f08c379a00000000000000000000000000000000000000000000000000000000081526004016107c490611627565b60405180910390fd5b6107da8286868403610a1b565b60019250505092915050565b6000600754905090565b6000806107fb610a13565b9050610808818585610c72565b600191505092915050565b600160076000828254610826919061155f565b92505081905550565b6000600160008473ffffffffffffffffffffffffffffffffffffffff1673ffffffffffffffffffffffffffffffffffffffff16815260200190815260200160002060008373ffffffffffffffffffffffffffffffffffffffff1673ffffffffffffffffffffffffffffffffffffffff16815260200190815260200160002054905092915050565b6060600680546108c5906114d4565b80601f01602080910402602001604051908101604052809291908181526020018280546108f1906114d4565b801561093e5780601f106109135761010080835404028352916020019161093e565b820191906000526020600020905b81548152906001019060200180831161092157829003601f168201915b5050505050905090565b60068054610955906114d4565b80601f0160208091040260200160405190810160405280929190818152602001828054610981906114d4565b80156109ce5780601f106109a3576101008083540402835291602001916109ce565b820191906000526020600020905b8154815290600101906020018083116109b157829003601f168201915b505050505081565b60606040518060400160405280600b81526020017f68656c6c6f20776f726c64000000000000000000000000000000000000000000815250905090565b600033905090565b600073ffffffffffffffffffffffffffffffffffffffff168373ffffffffffffffffffffffffffffffffffffffff161415610a8b576040517f08c379a0000000000000000000000000000000000000000000000000000000008152600401610a82906116b9565b60405180910390fd5b600073ffffffffffffffffffffffffffffffffffffffff168273ffffffffffffffffffffffffffffffffffffffff161415610afb576040517f08c379a0000000000000000000000000000000000000000000000000000000008152600401610af29061174b565b60405180910390fd5b80600160008573ffffffffffffffffffffffffffffffffffffffff1673ffffffffffffffffffffffffffffffffffffffff16815260200190815260200160002060008473ffffffffffffffffffffffffffffffffffffffff1673ffffffffffffffffffffffffffffffffffffffff168152602001908152602001600020819055508173ffffffffffffffffffffffffffffffffffffffff168373ffffffffffffffffffffffffffffffffffffffff167f8c5be1e5ebec7d5bd14f71427d1e84f3dd0314c0f7b2291e5b200ac8c7c3b92583604051610bd99190610fb9565b60405180910390a3505050565b6000610bf2848461082f565b90507fffffffffffffffffffffffffffffffffffffffffffffffffffffffffffffffff8114610c6c5781811015610c5e576040517f08c379a0000000000000000000000000000000000000000000000000000000008152600401610c55906117b7565b60405180910390fd5b610c6b8484848403610a1b565b5b50505050565b600073ffffffffffffffffffffffffffffffffffffffff168373ffffffffffffffffffffffffffffffffffffffff161415610ce2576040517f08c379a0000000000000000000000000000000000000000000000000000000008152600401610cd990611849565b60405180910390fd5b600073ffffffffffffffffffffffffffffffffffffffff168273ffffffffffffffffffffffffffffffffffffffff161415610d52576040517f08c379a0000000000000000000000000000000000000000000000000000000008152600401610d49906118db565b60405180910390fd5b610d5d838383610ef3565b60008060008573ffffffffffffffffffffffffffffffffffffffff1673ffffffffffffffffffffffffffffffffffffffff16815260200190815260200160002054905081811015610de3576040517f08c379a0000000000000000000000000000000000000000000000000000000008152600401610dda9061196d565b60405180910390fd5b8181036000808673ffffffffffffffffffffffffffffffffffffffff1673ffffffffffffffffffffffffffffffffffffffff16815260200190815260200160002081905550816000808573ffffffffffffffffffffffffffffffffffffffff1673ffffffffffffffffffffffffffffffffffffffff1681526020019081526020016000206000828254610e76919061155f565b925050819055508273ffffffffffffffffffffffffffffffffffffffff168473ffffffffffffffffffffffffffffffffffffffff167fddf252ad1be2c89b69c2b068fc378daa952ba7f163c4a11628f55a4df523b3ef84604051610eda9190610fb9565b60405180910390a3610eed848484610ef8565b50505050565b505050565b505050565b828054610f09906114d4565b90600052602060002090601f016020900481019282610f2b5760008555610f72565b82601f10610f4457805160ff1916838001178555610f72565b82800160010185558215610f72579182015b82811115610f71578251825591602001919060010190610f56565b5b509050610f7f9190610f83565b5090565b5b80821115610f9c576000816000905550600101610f84565b5090565b6000819050919050565b610fb381610fa0565b82525050565b6000602082019050610fce6000830184610faa565b92915050565b600081519050919050565b600082825260208201905092915050565b60005b8381101561100e578082015181840152602081019050610ff3565b8381111561101d576000848401525b50505050565b6000601f19601f8301169050919050565b600061103f82610fd4565b6110498185610fdf565b9350611059818560208601610ff0565b61106281611023565b840191505092915050565b600060208201905081810360008301526110878184611034565b905092915050565b6000604051905090565b600080fd5b600080fd5b600073ffffffffffffffffffffffffffffffffffffffff82169050919050565b60006110ce826110a3565b9050919050565b6110de816110c3565b81146110e957600080fd5b50565b6000813590506110fb816110d5565b92915050565b61110a81610fa0565b811461111557600080fd5b50565b60008135905061112781611101565b92915050565b6000806040838503121561114457611143611099565b5b6000611152858286016110ec565b925050602061116385828601611118565b9150509250929050565b60008115159050919050565b6111828161116d565b82525050565b600060208201905061119d6000830184611179565b92915050565b6000806000606084860312156111bc576111bb611099565b5b60006111ca868287016110ec565b93505060206111db868287016110ec565b92505060406111ec86828701611118565b9150509250925092565b6000819050919050565b611209816111f6565b82525050565b60006020820190506112246000830184611200565b92915050565b600060ff82169050919050565b6112408161122a565b82525050565b600060208201905061125b6000830184611237565b92915050565b600080fd5b600080fd5b7f4e487b7100000000000000000000000000000000000000000000000000000000600052604160045260246000fd5b6112a382611023565b810181811067ffffffffffffffff821117156112c2576112c161126b565b5b80604052505050565b60006112d561108f565b90506112e1828261129a565b919050565b600067ffffffffffffffff8211156113015761130061126b565b5b61130a82611023565b9050602081019050919050565b82818337600083830152505050565b6000611339611334846112e6565b6112cb565b90508281526020810184848401111561135557611354611266565b5b611360848285611317565b509392505050565b600082601f83011261137d5761137c611261565b5b813561138d848260208601611326565b91505092915050565b6000602082840312156113ac576113ab611099565b5b600082013567ffffffffffffffff8111156113ca576113c961109e565b5b6113d684828501611368565b91505092915050565b6113e8816111f6565b81146113f357600080fd5b50565b600081359050611405816113df565b92915050565b60006020828403121561142157611420611099565b5b600061142f848285016113f6565b91505092915050565b60006020828403121561144e5761144d611099565b5b600061145c848285016110ec565b91505092915050565b6000806040838503121561147c5761147b611099565b5b600061148a858286016110ec565b925050602061149b858286016110ec565b9150509250929050565b7f4e487b7100000000000000000000000000000000000000000000000000000000600052602260045260246000fd5b600060028204905060018216806114ec57607f821691505b60208210811415611500576114ff6114a5565b5b50919050565b7f4e487b7100000000000000000000000000000000000000000000000000000000600052601160045260246000fd5b600061154082610fa0565b9150600082141561155457611553611506565b5b600182039050919050565b600061156a82610fa0565b915061157583610fa0565b9250827fffffffffffffffffffffffffffffffffffffffffffffffffffffffffffffffff038211156115aa576115a9611506565b5b828201905092915050565b7f45524332303a2064656372656173656420616c6c6f77616e63652062656c6f7760008201527f207a65726f000000000000000000000000000000000000000000000000000000602082015250565b6000611611602583610fdf565b915061161c826115b5565b604082019050919050565b6000602082019050818103600083015261164081611604565b9050919050565b7f45524332303a20617070726f76652066726f6d20746865207a65726f2061646460008201527f7265737300000000000000000000000000000000000000000000000000000000602082015250565b60006116a3602483610fdf565b91506116ae82611647565b604082019050919050565b600060208201905081810360008301526116d281611696565b9050919050565b7f45524332303a20617070726f766520746f20746865207a65726f20616464726560008201527f7373000000000000000000000000000000000000000000000000000000000000602082015250565b6000611735602283610fdf565b9150611740826116d9565b604082019050919050565b6000602082019050818103600083015261176481611728565b9050919050565b7f45524332303a20696e73756666696369656e7420616c6c6f77616e6365000000600082015250565b60006117a1601d83610fdf565b91506117ac8261176b565b602082019050919050565b600060208201905081810360008301526117d081611794565b9050919050565b7f45524332303a207472616e736665722066726f6d20746865207a65726f20616460008201527f6472657373000000000000000000000000000000000000000000000000000000602082015250565b6000611833602583610fdf565b915061183e826117d7565b604082019050919050565b6000602082019050818103600083015261186281611826565b9050919050565b7f45524332303a207472616e7366657220746f20746865207a65726f206164647260008201527f6573730000000000000000000000000000000000000000000000000000000000602082015250565b60006118c5602383610fdf565b91506118d082611869565b604082019050919050565b600060208201905081810360008301526118f4816118b8565b9050919050565b7f45524332303a207472616e7366657220616d6f756e742065786365656473206260008201527f616c616e63650000000000000000000000000000000000000000000000000000602082015250565b6000611957602683610fdf565b9150611962826118fb565b604082019050919050565b600060208201905081810360008301526119868161194a565b905091905056fea26469706673582212205435780e954241ed57dfdd8ff57dac1371d4ee26aee86313583f4459e09fff0964736f6c634300080c0033",
  "immutableReferences": {},
  "source": "pragma solidity >=0.4.0 <0.9.0;\nimport \"@openzeppelin/contracts/token/ERC20/ERC20.sol\";\ncontract ERC20Coin is ERC20 {\n      constructor() ERC20(\"Scaffold ETH Token\", \"SET\") {\n        _mint(msg.sender, 55555 * 10 ** 18); //1000000000000000000000n\n        // _mint(msg.sender, 5555 * 1 ** 1);\n    }\n\n\n    bytes32 public fooStore;\n    string public setMessage = \"Hello Solidity\";\n    // Public variable of type unsigned int to keep the number of counts\n    uint256 public count = 0;\n\n    function sayHello() public pure returns(string memory){\n        return(\"hello world\");\n    }\n    function setText(string memory _setText) public {\n        setMessage = _setText;\n    }\n    function getText() public view returns(string memory) {\n        return(setMessage);\n    }\n      // event logFoo(bytes32 foo);\n    function sendFoo(bytes32 foo) public {\n        fooStore= foo;\n        // logFoo(foo);\n    }\n    function getFoo() public view returns(bytes32) {\n        return(fooStore);\n    }\n\n\n    // Function that increments our counter\n    function increment() public {\n        count += 1;\n    }\n\n    // Not necessary getter to get the count value\n    function getCount() public view returns (uint256) {\n        return count;\n    }\n     // Function that increments our counter\n    function decrement() public {\n        count--;\n    }\n}\n\n\n\n// pragma solidity ^0.8.0;\n\n// import \"@openzeppelin/contracts/token/ERC20/ERC20.sol\";\n// import \"@openzeppelin/contracts/access/Ownable.sol\";\n\n// contract MyToken is ERC20, Ownable {\n//     constructor() ERC20(\"MyToken\", \"MTK\") {\n//         _mint(msg.sender, 1000 * 10 ** decimals());\n//     }\n\n//     function mint(address to, uint256 amount) public onlyOwner {\n//         _mint(to, amount);\n//     }\n// }",
  "sourcePath": "/Users/pinkyjain/Downloads/BLOCKCHAIN/truffle-ropsten-dapp/contracts/ERC20Coin.sol",
  "compiler": {
    "name": "solc",
    "version": "0.8.12+commit.f00d7308.Emscripten.clang"
  },
  "schemaVersion": "3.4.5",
  "updatedAt": "2022-02-23T08:43:45.515Z",
  "networkType": "ethereum",
  "devdoc": {
    "kind": "dev",
    "methods": {
      "allowance(address,address)": {
        "details": "See {IERC20-allowance}."
      },
      "approve(address,uint256)": {
        "details": "See {IERC20-approve}. NOTE: If `amount` is the maximum `uint256`, the allowance is not updated on `transferFrom`. This is semantically equivalent to an infinite approval. Requirements: - `spender` cannot be the zero address."
      },
      "balanceOf(address)": {
        "details": "See {IERC20-balanceOf}."
      },
      "decimals()": {
        "details": "Returns the number of decimals used to get its user representation. For example, if `decimals` equals `2`, a balance of `505` tokens should be displayed to a user as `5.05` (`505 / 10 ** 2`). Tokens usually opt for a value of 18, imitating the relationship between Ether and Wei. This is the value {ERC20} uses, unless this function is overridden; NOTE: This information is only used for _display_ purposes: it in no way affects any of the arithmetic of the contract, including {IERC20-balanceOf} and {IERC20-transfer}."
      },
      "decreaseAllowance(address,uint256)": {
        "details": "Atomically decreases the allowance granted to `spender` by the caller. This is an alternative to {approve} that can be used as a mitigation for problems described in {IERC20-approve}. Emits an {Approval} event indicating the updated allowance. Requirements: - `spender` cannot be the zero address. - `spender` must have allowance for the caller of at least `subtractedValue`."
      },
      "increaseAllowance(address,uint256)": {
        "details": "Atomically increases the allowance granted to `spender` by the caller. This is an alternative to {approve} that can be used as a mitigation for problems described in {IERC20-approve}. Emits an {Approval} event indicating the updated allowance. Requirements: - `spender` cannot be the zero address."
      },
      "name()": {
        "details": "Returns the name of the token."
      },
      "symbol()": {
        "details": "Returns the symbol of the token, usually a shorter version of the name."
      },
      "totalSupply()": {
        "details": "See {IERC20-totalSupply}."
      },
      "transfer(address,uint256)": {
        "details": "See {IERC20-transfer}. Requirements: - `to` cannot be the zero address. - the caller must have a balance of at least `amount`."
      },
      "transferFrom(address,address,uint256)": {
        "details": "See {IERC20-transferFrom}. Emits an {Approval} event indicating the updated allowance. This is not required by the EIP. See the note at the beginning of {ERC20}. NOTE: Does not update the allowance if the current allowance is the maximum `uint256`. Requirements: - `from` and `to` cannot be the zero address. - `from` must have a balance of at least `amount`. - the caller must have allowance for ``from``'s tokens of at least `amount`."
      }
    },
    "version": 1
  },
  "userdoc": {
    "kind": "user",
    "methods": {},
    "version": 1
  }
}