{
  "contractName": "ERC20Coin",
  "abi": [
    {
      "inputs": [],
      "stateMutability": "nonpayable",
      "type": "constructor"
    },
    {
      "anonymous": false,
      "inputs": [
        {
          "indexed": true,
          "internalType": "address",
          "name": "owner",
          "type": "address"
        },
        {
          "indexed": true,
          "internalType": "address",
          "name": "spender",
          "type": "address"
        },
        {
          "indexed": false,
          "internalType": "uint256",
          "name": "value",
          "type": "uint256"
        }
      ],
      "name": "Approval",
      "type": "event"
    },
    {
      "anonymous": false,
      "inputs": [
        {
          "indexed": true,
          "internalType": "address",
          "name": "from",
          "type": "address"
        },
        {
          "indexed": true,
          "internalType": "address",
          "name": "to",
          "type": "address"
        },
        {
          "indexed": false,
          "internalType": "uint256",
          "name": "value",
          "type": "uint256"
        }
      ],
      "name": "Transfer",
      "type": "event"
    },
    {
      "inputs": [
        {
          "internalType": "address",
          "name": "owner",
          "type": "address"
        },
        {
          "internalType": "address",
          "name": "spender",
          "type": "address"
        }
      ],
      "name": "allowance",
      "outputs": [
        {
          "internalType": "uint256",
          "name": "",
          "type": "uint256"
        }
      ],
      "stateMutability": "view",
      "type": "function"
    },
    {
      "inputs": [
        {
          "internalType": "address",
          "name": "spender",
          "type": "address"
        },
        {
          "internalType": "uint256",
          "name": "amount",
          "type": "uint256"
        }
      ],
      "name": "approve",
      "outputs": [
        {
          "internalType": "bool",
          "name": "",
          "type": "bool"
        }
      ],
      "stateMutability": "nonpayable",
      "type": "function"
    },
    {
      "inputs": [
        {
          "internalType": "address",
          "name": "account",
          "type": "address"
        }
      ],
      "name": "balanceOf",
      "outputs": [
        {
          "internalType": "uint256",
          "name": "",
          "type": "uint256"
        }
      ],
      "stateMutability": "view",
      "type": "function"
    },
    {
      "inputs": [],
      "name": "count",
      "outputs": [
        {
          "internalType": "uint256",
          "name": "",
          "type": "uint256"
        }
      ],
      "stateMutability": "view",
      "type": "function"
    },
    {
      "inputs": [],
      "name": "decimals",
      "outputs": [
        {
          "internalType": "uint8",
          "name": "",
          "type": "uint8"
        }
      ],
      "stateMutability": "view",
      "type": "function"
    },
    {
      "inputs": [
        {
          "internalType": "address",
          "name": "spender",
          "type": "address"
        },
        {
          "internalType": "uint256",
          "name": "subtractedValue",
          "type": "uint256"
        }
      ],
      "name": "decreaseAllowance",
      "outputs": [
        {
          "internalType": "bool",
          "name": "",
          "type": "bool"
        }
      ],
      "stateMutability": "nonpayable",
      "type": "function"
    },
    {
      "inputs": [],
      "name": "fooStore",
      "outputs": [
        {
          "internalType": "bytes32",
          "name": "",
          "type": "bytes32"
        }
      ],
      "stateMutability": "view",
      "type": "function"
    },
    {
      "inputs": [
        {
          "internalType": "address",
          "name": "spender",
          "type": "address"
        },
        {
          "internalType": "uint256",
          "name": "addedValue",
          "type": "uint256"
        }
      ],
      "name": "increaseAllowance",
      "outputs": [
        {
          "internalType": "bool",
          "name": "",
          "type": "bool"
        }
      ],
      "stateMutability": "nonpayable",
      "type": "function"
    },
    {
      "inputs": [],
      "name": "name",
      "outputs": [
        {
          "internalType": "string",
          "name": "",
          "type": "string"
        }
      ],
      "stateMutability": "view",
      "type": "function"
    },
    {
      "inputs": [],
      "name": "setMessage",
      "outputs": [
        {
          "internalType": "string",
          "name": "",
          "type": "string"
        }
      ],
      "stateMutability": "view",
      "type": "function"
    },
    {
      "inputs": [],
      "name": "symbol",
      "outputs": [
        {
          "internalType": "string",
          "name": "",
          "type": "string"
        }
      ],
      "stateMutability": "view",
      "type": "function"
    },
    {
      "inputs": [],
      "name": "totalSupply",
      "outputs": [
        {
          "internalType": "uint256",
          "name": "",
          "type": "uint256"
        }
      ],
      "stateMutability": "view",
      "type": "function"
    },
    {
      "inputs": [
        {
          "internalType": "address",
          "name": "to",
          "type": "address"
        },
        {
          "internalType": "uint256",
          "name": "amount",
          "type": "uint256"
        }
      ],
      "name": "transfer",
      "outputs": [
        {
          "internalType": "bool",
          "name": "",
          "type": "bool"
        }
      ],
      "stateMutability": "nonpayable",
      "type": "function"
    },
    {
      "inputs": [
        {
          "internalType": "address",
          "name": "from",
          "type": "address"
        },
        {
          "internalType": "address",
          "name": "to",
          "type": "address"
        },
        {
          "internalType": "uint256",
          "name": "amount",
          "type": "uint256"
        }
      ],
      "name": "transferFrom",
      "outputs": [
        {
          "internalType": "bool",
          "name": "",
          "type": "bool"
        }
      ],
      "stateMutability": "nonpayable",
      "type": "function"
    },
    {
      "inputs": [],
      "name": "sayHello",
      "outputs": [
        {
          "internalType": "string",
          "name": "",
          "type": "string"
        }
      ],
      "stateMutability": "pure",
      "type": "function"
    },
    {
      "inputs": [
        {
          "internalType": "string",
          "name": "_setText",
          "type": "string"
        }
      ],
      "name": "setText",
      "outputs": [],
      "stateMutability": "nonpayable",
      "type": "function"
    },
    {
      "inputs": [],
      "name": "getText",
      "outputs": [
        {
          "internalType": "string",
          "name": "",
          "type": "string"
        }
      ],
      "stateMutability": "view",
      "type": "function"
    },
    {
      "inputs": [
        {
          "internalType": "bytes32",
          "name": "foo",
          "type": "bytes32"
        }
      ],
      "name": "sendFoo",
      "outputs": [],
      "stateMutability": "nonpayable",
      "type": "function"
    },
    {
      "inputs": [],
      "name": "getFoo",
      "outputs": [
        {
          "internalType": "bytes32",
          "name": "",
          "type": "bytes32"
        }
      ],
      "stateMutability": "view",
      "type": "function"
    },
    {
      "inputs": [],
      "name": "increment",
      "outputs": [],
      "stateMutability": "nonpayable",
      "type": "function"
    },
    {
      "inputs": [],
      "name": "getCount",
      "outputs": [
        {
          "internalType": "uint256",
          "name": "",
          "type": "uint256"
        }
      ],
      "stateMutability": "view",
      "type": "function"
    }
  ],
  "bytecode": "0x60806040526040518060400160405280600e81526020017f48656c6c6f20536f6c69646974790000000000000000000000000000000000008152506006908051906020019062000051929190620002aa565b5060006007553480156200006457600080fd5b506040518060400160405280601281526020017f53636166666f6c642045544820546f6b656e00000000000000000000000000008152506040518060400160405280600381526020017f53455400000000000000000000000000000000000000000000000000000000008152508160039080519060200190620000e9929190620002aa565b50806004908051906020019062000102929190620002aa565b5050506200012133690bc3a4806cfeba2c00006200012760201b60201c565b62000506565b600073ffffffffffffffffffffffffffffffffffffffff168273ffffffffffffffffffffffffffffffffffffffff1614156200019a576040517f08c379a00000000000000000000000000000000000000000000000000000000081526004016200019190620003bb565b60405180910390fd5b620001ae60008383620002a060201b60201c565b8060026000828254620001c2919062000416565b92505081905550806000808473ffffffffffffffffffffffffffffffffffffffff1673ffffffffffffffffffffffffffffffffffffffff168152602001908152602001600020600082825462000219919062000416565b925050819055508173ffffffffffffffffffffffffffffffffffffffff16600073ffffffffffffffffffffffffffffffffffffffff167fddf252ad1be2c89b69c2b068fc378daa952ba7f163c4a11628f55a4df523b3ef8360405162000280919062000484565b60405180910390a36200029c60008383620002a560201b60201c565b5050565b505050565b505050565b828054620002b890620004d0565b90600052602060002090601f016020900481019282620002dc576000855562000328565b82601f10620002f757805160ff191683800117855562000328565b8280016001018555821562000328579182015b82811115620003275782518255916020019190600101906200030a565b5b5090506200033791906200033b565b5090565b5b80821115620003565760008160009055506001016200033c565b5090565b600082825260208201905092915050565b7f45524332303a206d696e7420746f20746865207a65726f206164647265737300600082015250565b6000620003a3601f836200035a565b9150620003b0826200036b565b602082019050919050565b60006020820190508181036000830152620003d68162000394565b9050919050565b6000819050919050565b7f4e487b7100000000000000000000000000000000000000000000000000000000600052601160045260246000fd5b60006200042382620003dd565b91506200043083620003dd565b9250827fffffffffffffffffffffffffffffffffffffffffffffffffffffffffffffffff03821115620004685762000467620003e7565b5b828201905092915050565b6200047e81620003dd565b82525050565b60006020820190506200049b600083018462000473565b92915050565b7f4e487b7100000000000000000000000000000000000000000000000000000000600052602260045260246000fd5b60006002820490506001821680620004e957607f821691505b602082108114156200050057620004ff620004a1565b5b50919050565b61196a80620005166000396000f3fe608060405234801561001057600080fd5b50600436106101375760003560e01c8063642d8277116100b8578063a9059cbb1161007c578063a9059cbb14610354578063d09de08a14610384578063dd62ed3e1461038e578063e00fe2eb146103be578063e90847f4146103dc578063ef5fb05b146103fa57610137565b8063642d82771461029c57806370a08231146102b857806395d89b41146102e8578063a457c2d714610306578063a87d942c1461033657610137565b8063243dc8da116100ff578063243dc8da146101f6578063261f961714610214578063313ce5671461023257806339509351146102505780635d3a1f9d1461028057610137565b806306661abd1461013c57806306fdde031461015a578063095ea7b31461017857806318160ddd146101a857806323b872dd146101c6575b600080fd5b610144610418565b6040516101519190610f8a565b60405180910390f35b61016261041e565b60405161016f919061103e565b60405180910390f35b610192600480360381019061018d91906110fe565b6104b0565b60405161019f9190611159565b60405180910390f35b6101b06104d3565b6040516101bd9190610f8a565b60405180910390f35b6101e060048036038101906101db9190611174565b6104dd565b6040516101ed9190611159565b60405180910390f35b6101fe61050c565b60405161020b91906111e0565b60405180910390f35b61021c610516565b60405161022991906111e0565b60405180910390f35b61023a61051c565b6040516102479190611217565b60405180910390f35b61026a600480360381019061026591906110fe565b610525565b6040516102779190611159565b60405180910390f35b61029a60048036038101906102959190611367565b6105cf565b005b6102b660048036038101906102b191906113dc565b6105e9565b005b6102d260048036038101906102cd9190611409565b6105f3565b6040516102df9190610f8a565b60405180910390f35b6102f061063b565b6040516102fd919061103e565b60405180910390f35b610320600480360381019061031b91906110fe565b6106cd565b60405161032d9190611159565b60405180910390f35b61033e6107b7565b60405161034b9190610f8a565b60405180910390f35b61036e600480360381019061036991906110fe565b6107c1565b60405161037b9190611159565b60405180910390f35b61038c6107e4565b005b6103a860048036038101906103a39190611436565b610800565b6040516103b59190610f8a565b60405180910390f35b6103c6610887565b6040516103d3919061103e565b60405180910390f35b6103e4610919565b6040516103f1919061103e565b60405180910390f35b6104026109a7565b60405161040f919061103e565b60405180910390f35b60075481565b60606003805461042d906114a5565b80601f0160208091040260200160405190810160405280929190818152602001828054610459906114a5565b80156104a65780601f1061047b576101008083540402835291602001916104a6565b820191906000526020600020905b81548152906001019060200180831161048957829003601f168201915b5050505050905090565b6000806104bb6109e4565b90506104c88185856109ec565b600191505092915050565b6000600254905090565b6000806104e86109e4565b90506104f5858285610bb7565b610500858585610c43565b60019150509392505050565b6000600554905090565b60055481565b60006012905090565b6000806105306109e4565b90506105c4818585600160008673ffffffffffffffffffffffffffffffffffffffff1673ffffffffffffffffffffffffffffffffffffffff16815260200190815260200160002060008973ffffffffffffffffffffffffffffffffffffffff1673ffffffffffffffffffffffffffffffffffffffff168152602001908152602001600020546105bf9190611506565b6109ec565b600191505092915050565b80600690805190602001906105e5929190610ece565b5050565b8060058190555050565b60008060008373ffffffffffffffffffffffffffffffffffffffff1673ffffffffffffffffffffffffffffffffffffffff168152602001908152602001600020549050919050565b60606004805461064a906114a5565b80601f0160208091040260200160405190810160405280929190818152602001828054610676906114a5565b80156106c35780601f10610698576101008083540402835291602001916106c3565b820191906000526020600020905b8154815290600101906020018083116106a657829003601f168201915b5050505050905090565b6000806106d86109e4565b90506000600160008373ffffffffffffffffffffffffffffffffffffffff1673ffffffffffffffffffffffffffffffffffffffff16815260200190815260200160002060008673ffffffffffffffffffffffffffffffffffffffff1673ffffffffffffffffffffffffffffffffffffffff1681526020019081526020016000205490508381101561079e576040517f08c379a0000000000000000000000000000000000000000000000000000000008152600401610795906115ce565b60405180910390fd5b6107ab82868684036109ec565b60019250505092915050565b6000600754905090565b6000806107cc6109e4565b90506107d9818585610c43565b600191505092915050565b6001600760008282546107f79190611506565b92505081905550565b6000600160008473ffffffffffffffffffffffffffffffffffffffff1673ffffffffffffffffffffffffffffffffffffffff16815260200190815260200160002060008373ffffffffffffffffffffffffffffffffffffffff1673ffffffffffffffffffffffffffffffffffffffff16815260200190815260200160002054905092915050565b606060068054610896906114a5565b80601f01602080910402602001604051908101604052809291908181526020018280546108c2906114a5565b801561090f5780601f106108e45761010080835404028352916020019161090f565b820191906000526020600020905b8154815290600101906020018083116108f257829003601f168201915b5050505050905090565b60068054610926906114a5565b80601f0160208091040260200160405190810160405280929190818152602001828054610952906114a5565b801561099f5780601f106109745761010080835404028352916020019161099f565b820191906000526020600020905b81548152906001019060200180831161098257829003601f168201915b505050505081565b60606040518060400160405280600b81526020017f68656c6c6f20776f726c64000000000000000000000000000000000000000000815250905090565b600033905090565b600073ffffffffffffffffffffffffffffffffffffffff168373ffffffffffffffffffffffffffffffffffffffff161415610a5c576040517f08c379a0000000000000000000000000000000000000000000000000000000008152600401610a5390611660565b60405180910390fd5b600073ffffffffffffffffffffffffffffffffffffffff168273ffffffffffffffffffffffffffffffffffffffff161415610acc576040517f08c379a0000000000000000000000000000000000000000000000000000000008152600401610ac3906116f2565b60405180910390fd5b80600160008573ffffffffffffffffffffffffffffffffffffffff1673ffffffffffffffffffffffffffffffffffffffff16815260200190815260200160002060008473ffffffffffffffffffffffffffffffffffffffff1673ffffffffffffffffffffffffffffffffffffffff168152602001908152602001600020819055508173ffffffffffffffffffffffffffffffffffffffff168373ffffffffffffffffffffffffffffffffffffffff167f8c5be1e5ebec7d5bd14f71427d1e84f3dd0314c0f7b2291e5b200ac8c7c3b92583604051610baa9190610f8a565b60405180910390a3505050565b6000610bc38484610800565b90507fffffffffffffffffffffffffffffffffffffffffffffffffffffffffffffffff8114610c3d5781811015610c2f576040517f08c379a0000000000000000000000000000000000000000000000000000000008152600401610c269061175e565b60405180910390fd5b610c3c84848484036109ec565b5b50505050565b600073ffffffffffffffffffffffffffffffffffffffff168373ffffffffffffffffffffffffffffffffffffffff161415610cb3576040517f08c379a0000000000000000000000000000000000000000000000000000000008152600401610caa906117f0565b60405180910390fd5b600073ffffffffffffffffffffffffffffffffffffffff168273ffffffffffffffffffffffffffffffffffffffff161415610d23576040517f08c379a0000000000000000000000000000000000000000000000000000000008152600401610d1a90611882565b60405180910390fd5b610d2e838383610ec4565b60008060008573ffffffffffffffffffffffffffffffffffffffff1673ffffffffffffffffffffffffffffffffffffffff16815260200190815260200160002054905081811015610db4576040517f08c379a0000000000000000000000000000000000000000000000000000000008152600401610dab90611914565b60405180910390fd5b8181036000808673ffffffffffffffffffffffffffffffffffffffff1673ffffffffffffffffffffffffffffffffffffffff16815260200190815260200160002081905550816000808573ffffffffffffffffffffffffffffffffffffffff1673ffffffffffffffffffffffffffffffffffffffff1681526020019081526020016000206000828254610e479190611506565b925050819055508273ffffffffffffffffffffffffffffffffffffffff168473ffffffffffffffffffffffffffffffffffffffff167fddf252ad1be2c89b69c2b068fc378daa952ba7f163c4a11628f55a4df523b3ef84604051610eab9190610f8a565b60405180910390a3610ebe848484610ec9565b50505050565b505050565b505050565b828054610eda906114a5565b90600052602060002090601f016020900481019282610efc5760008555610f43565b82601f10610f1557805160ff1916838001178555610f43565b82800160010185558215610f43579182015b82811115610f42578251825591602001919060010190610f27565b5b509050610f509190610f54565b5090565b5b80821115610f6d576000816000905550600101610f55565b5090565b6000819050919050565b610f8481610f71565b82525050565b6000602082019050610f9f6000830184610f7b565b92915050565b600081519050919050565b600082825260208201905092915050565b60005b83811015610fdf578082015181840152602081019050610fc4565b83811115610fee576000848401525b50505050565b6000601f19601f8301169050919050565b600061101082610fa5565b61101a8185610fb0565b935061102a818560208601610fc1565b61103381610ff4565b840191505092915050565b600060208201905081810360008301526110588184611005565b905092915050565b6000604051905090565b600080fd5b600080fd5b600073ffffffffffffffffffffffffffffffffffffffff82169050919050565b600061109f82611074565b9050919050565b6110af81611094565b81146110ba57600080fd5b50565b6000813590506110cc816110a6565b92915050565b6110db81610f71565b81146110e657600080fd5b50565b6000813590506110f8816110d2565b92915050565b600080604083850312156111155761111461106a565b5b6000611123858286016110bd565b9250506020611134858286016110e9565b9150509250929050565b60008115159050919050565b6111538161113e565b82525050565b600060208201905061116e600083018461114a565b92915050565b60008060006060848603121561118d5761118c61106a565b5b600061119b868287016110bd565b93505060206111ac868287016110bd565b92505060406111bd868287016110e9565b9150509250925092565b6000819050919050565b6111da816111c7565b82525050565b60006020820190506111f560008301846111d1565b92915050565b600060ff82169050919050565b611211816111fb565b82525050565b600060208201905061122c6000830184611208565b92915050565b600080fd5b600080fd5b7f4e487b7100000000000000000000000000000000000000000000000000000000600052604160045260246000fd5b61127482610ff4565b810181811067ffffffffffffffff821117156112935761129261123c565b5b80604052505050565b60006112a6611060565b90506112b2828261126b565b919050565b600067ffffffffffffffff8211156112d2576112d161123c565b5b6112db82610ff4565b9050602081019050919050565b82818337600083830152505050565b600061130a611305846112b7565b61129c565b90508281526020810184848401111561132657611325611237565b5b6113318482856112e8565b509392505050565b600082601f83011261134e5761134d611232565b5b813561135e8482602086016112f7565b91505092915050565b60006020828403121561137d5761137c61106a565b5b600082013567ffffffffffffffff81111561139b5761139a61106f565b5b6113a784828501611339565b91505092915050565b6113b9816111c7565b81146113c457600080fd5b50565b6000813590506113d6816113b0565b92915050565b6000602082840312156113f2576113f161106a565b5b6000611400848285016113c7565b91505092915050565b60006020828403121561141f5761141e61106a565b5b600061142d848285016110bd565b91505092915050565b6000806040838503121561144d5761144c61106a565b5b600061145b858286016110bd565b925050602061146c858286016110bd565b9150509250929050565b7f4e487b7100000000000000000000000000000000000000000000000000000000600052602260045260246000fd5b600060028204905060018216806114bd57607f821691505b602082108114156114d1576114d0611476565b5b50919050565b7f4e487b7100000000000000000000000000000000000000000000000000000000600052601160045260246000fd5b600061151182610f71565b915061151c83610f71565b9250827fffffffffffffffffffffffffffffffffffffffffffffffffffffffffffffffff03821115611551576115506114d7565b5b828201905092915050565b7f45524332303a2064656372656173656420616c6c6f77616e63652062656c6f7760008201527f207a65726f000000000000000000000000000000000000000000000000000000602082015250565b60006115b8602583610fb0565b91506115c38261155c565b604082019050919050565b600060208201905081810360008301526115e7816115ab565b9050919050565b7f45524332303a20617070726f76652066726f6d20746865207a65726f2061646460008201527f7265737300000000000000000000000000000000000000000000000000000000602082015250565b600061164a602483610fb0565b9150611655826115ee565b604082019050919050565b600060208201905081810360008301526116798161163d565b9050919050565b7f45524332303a20617070726f766520746f20746865207a65726f20616464726560008201527f7373000000000000000000000000000000000000000000000000000000000000602082015250565b60006116dc602283610fb0565b91506116e782611680565b604082019050919050565b6000602082019050818103600083015261170b816116cf565b9050919050565b7f45524332303a20696e73756666696369656e7420616c6c6f77616e6365000000600082015250565b6000611748601d83610fb0565b915061175382611712565b602082019050919050565b600060208201905081810360008301526117778161173b565b9050919050565b7f45524332303a207472616e736665722066726f6d20746865207a65726f20616460008201527f6472657373000000000000000000000000000000000000000000000000000000602082015250565b60006117da602583610fb0565b91506117e58261177e565b604082019050919050565b60006020820190508181036000830152611809816117cd565b9050919050565b7f45524332303a207472616e7366657220746f20746865207a65726f206164647260008201527f6573730000000000000000000000000000000000000000000000000000000000602082015250565b600061186c602383610fb0565b915061187782611810565b604082019050919050565b6000602082019050818103600083015261189b8161185f565b9050919050565b7f45524332303a207472616e7366657220616d6f756e742065786365656473206260008201527f616c616e63650000000000000000000000000000000000000000000000000000602082015250565b60006118fe602683610fb0565b9150611909826118a2565b604082019050919050565b6000602082019050818103600083015261192d816118f1565b905091905056fea264697066735822122025f46752b1d482cbf547824df0a6476fcc0282e30f243f194e92758ffe29da9464736f6c634300080c0033",
  "immutableReferences": {},
  "source": "pragma solidity >=0.4.0 <0.9.0;\nimport \"@openzeppelin/contracts/token/ERC20/ERC20.sol\";\ncontract ERC20Coin is ERC20 {\n      constructor() ERC20(\"Scaffold ETH Token\", \"SET\") {\n        _mint(msg.sender, 55555 * 10 ** 18); //1000000000000000000000n\n        // _mint(msg.sender, 5555 * 1 ** 1);\n    }\n\n\n    bytes32 public fooStore;\n    string public setMessage = \"Hello Solidity\";\n    // Public variable of type unsigned int to keep the number of counts\n    uint256 public count = 0;\n\n    function sayHello() public pure returns(string memory){\n        return(\"hello world\");\n    }\n    function setText(string memory _setText) public {\n        setMessage = _setText;\n    }\n    function getText() public view returns(string memory) {\n        return(setMessage);\n    }\n      // event logFoo(bytes32 foo);\n    function sendFoo(bytes32 foo) public {\n        fooStore= foo;\n        // logFoo(foo);\n    }\n    function getFoo() public view returns(bytes32) {\n        return(fooStore);\n    }\n\n\n    // Function that increments our counter\n    function increment() public {\n        count += 1;\n    }\n\n    // Not necessary getter to get the count value\n    function getCount() public view returns (uint256) {\n        return count;\n    }\n}\n\n\n\n// pragma solidity ^0.8.0;\n\n// import \"@openzeppelin/contracts/token/ERC20/ERC20.sol\";\n// import \"@openzeppelin/contracts/access/Ownable.sol\";\n\n// contract MyToken is ERC20, Ownable {\n//     constructor() ERC20(\"MyToken\", \"MTK\") {\n//         _mint(msg.sender, 1000 * 10 ** decimals());\n//     }\n\n//     function mint(address to, uint256 amount) public onlyOwner {\n//         _mint(to, amount);\n//     }\n// }",
  "sourcePath": "/Users/pinkyjain/Downloads/BLOCKCHAIN/truffle-ropsten-dapp/contracts/ERC20Coin.sol",
  "compiler": {
    "name": "solc",
    "version": "0.8.12+commit.f00d7308.Emscripten.clang"
  },
  "schemaVersion": "3.4.5",
  "updatedAt": "2022-02-23T08:41:13.028Z",
  "devdoc": {
    "kind": "dev",
    "methods": {
      "allowance(address,address)": {
        "details": "See {IERC20-allowance}."
      },
      "approve(address,uint256)": {
        "details": "See {IERC20-approve}. NOTE: If `amount` is the maximum `uint256`, the allowance is not updated on `transferFrom`. This is semantically equivalent to an infinite approval. Requirements: - `spender` cannot be the zero address."
      },
      "balanceOf(address)": {
        "details": "See {IERC20-balanceOf}."
      },
      "decimals()": {
        "details": "Returns the number of decimals used to get its user representation. For example, if `decimals` equals `2`, a balance of `505` tokens should be displayed to a user as `5.05` (`505 / 10 ** 2`). Tokens usually opt for a value of 18, imitating the relationship between Ether and Wei. This is the value {ERC20} uses, unless this function is overridden; NOTE: This information is only used for _display_ purposes: it in no way affects any of the arithmetic of the contract, including {IERC20-balanceOf} and {IERC20-transfer}."
      },
      "decreaseAllowance(address,uint256)": {
        "details": "Atomically decreases the allowance granted to `spender` by the caller. This is an alternative to {approve} that can be used as a mitigation for problems described in {IERC20-approve}. Emits an {Approval} event indicating the updated allowance. Requirements: - `spender` cannot be the zero address. - `spender` must have allowance for the caller of at least `subtractedValue`."
      },
      "increaseAllowance(address,uint256)": {
        "details": "Atomically increases the allowance granted to `spender` by the caller. This is an alternative to {approve} that can be used as a mitigation for problems described in {IERC20-approve}. Emits an {Approval} event indicating the updated allowance. Requirements: - `spender` cannot be the zero address."
      },
      "name()": {
        "details": "Returns the name of the token."
      },
      "symbol()": {
        "details": "Returns the symbol of the token, usually a shorter version of the name."
      },
      "totalSupply()": {
        "details": "See {IERC20-totalSupply}."
      },
      "transfer(address,uint256)": {
        "details": "See {IERC20-transfer}. Requirements: - `to` cannot be the zero address. - the caller must have a balance of at least `amount`."
      },
      "transferFrom(address,address,uint256)": {
        "details": "See {IERC20-transferFrom}. Emits an {Approval} event indicating the updated allowance. This is not required by the EIP. See the note at the beginning of {ERC20}. NOTE: Does not update the allowance if the current allowance is the maximum `uint256`. Requirements: - `from` and `to` cannot be the zero address. - `from` must have a balance of at least `amount`. - the caller must have allowance for ``from``'s tokens of at least `amount`."
      }
    },
    "version": 1
  },
  "userdoc": {
    "kind": "user",
    "methods": {},
    "version": 1
  }
}