{
  "contractName": "HelloWorld",
  "abi": [
    {
      "inputs": [],
      "name": "fooStore",
      "outputs": [
        {
          "internalType": "bytes32",
          "name": "",
          "type": "bytes32"
        }
      ],
      "stateMutability": "view",
      "type": "function",
      "constant": true
    },
    {
      "inputs": [],
      "name": "setMessage",
      "outputs": [
        {
          "internalType": "string",
          "name": "",
          "type": "string"
        }
      ],
      "stateMutability": "view",
      "type": "function",
      "constant": true
    },
    {
      "inputs": [],
      "name": "sayHello",
      "outputs": [
        {
          "internalType": "string",
          "name": "",
          "type": "string"
        }
      ],
      "stateMutability": "pure",
      "type": "function",
      "constant": true
    },
    {
      "inputs": [
        {
          "internalType": "string",
          "name": "_setText",
          "type": "string"
        }
      ],
      "name": "setText",
      "outputs": [],
      "stateMutability": "nonpayable",
      "type": "function"
    },
    {
      "inputs": [],
      "name": "getText",
      "outputs": [
        {
          "internalType": "string",
          "name": "",
          "type": "string"
        }
      ],
      "stateMutability": "view",
      "type": "function",
      "constant": true
    },
    {
      "inputs": [
        {
          "internalType": "bytes32",
          "name": "foo",
          "type": "bytes32"
        }
      ],
      "name": "sendFoo",
      "outputs": [],
      "stateMutability": "nonpayable",
      "type": "function"
    },
    {
      "inputs": [],
      "name": "getFoo",
      "outputs": [
        {
          "internalType": "bytes32",
          "name": "",
          "type": "bytes32"
        }
      ],
      "stateMutability": "view",
      "type": "function",
      "constant": true
    }
  ],
  "bytecode": "0x60806040526040518060400160405280600e81526020017f48656c6c6f20536f6c69646974790000000000000000000000000000000000008152506001908051906020019061004f929190610062565b5034801561005c57600080fd5b50610166565b82805461006e90610134565b90600052602060002090601f01602090048101928261009057600085556100d7565b82601f106100a957805160ff19168380011785556100d7565b828001600101855582156100d7579182015b828111156100d65782518255916020019190600101906100bb565b5b5090506100e491906100e8565b5090565b5b808211156101015760008160009055506001016100e9565b5090565b7f4e487b7100000000000000000000000000000000000000000000000000000000600052602260045260246000fd5b6000600282049050600182168061014c57607f821691505b602082108114156101605761015f610105565b5b50919050565b6106f4806101756000396000f3fe608060405234801561001057600080fd5b506004361061007d5760003560e01c8063642d82771161005b578063642d8277146100da578063e00fe2eb146100f6578063e90847f414610114578063ef5fb05b146101325761007d565b8063243dc8da14610082578063261f9617146100a05780635d3a1f9d146100be575b600080fd5b61008a610150565b604051610097919061039c565b60405180910390f35b6100a8610159565b6040516100b5919061039c565b60405180910390f35b6100d860048036038101906100d39190610511565b61015f565b005b6100f460048036038101906100ef9190610586565b610179565b005b6100fe610183565b60405161010b919061063b565b60405180910390f35b61011c610215565b604051610129919061063b565b60405180910390f35b61013a6102a3565b604051610147919061063b565b60405180910390f35b60008054905090565b60005481565b80600190805190602001906101759291906102e0565b5050565b8060008190555050565b6060600180546101929061068c565b80601f01602080910402602001604051908101604052809291908181526020018280546101be9061068c565b801561020b5780601f106101e05761010080835404028352916020019161020b565b820191906000526020600020905b8154815290600101906020018083116101ee57829003601f168201915b5050505050905090565b600180546102229061068c565b80601f016020809104026020016040519081016040528092919081815260200182805461024e9061068c565b801561029b5780601f106102705761010080835404028352916020019161029b565b820191906000526020600020905b81548152906001019060200180831161027e57829003601f168201915b505050505081565b60606040518060400160405280600b81526020017f68656c6c6f20776f726c64000000000000000000000000000000000000000000815250905090565b8280546102ec9061068c565b90600052602060002090601f01602090048101928261030e5760008555610355565b82601f1061032757805160ff1916838001178555610355565b82800160010185558215610355579182015b82811115610354578251825591602001919060010190610339565b5b5090506103629190610366565b5090565b5b8082111561037f576000816000905550600101610367565b5090565b6000819050919050565b61039681610383565b82525050565b60006020820190506103b1600083018461038d565b92915050565b6000604051905090565b600080fd5b600080fd5b600080fd5b600080fd5b6000601f19601f8301169050919050565b7f4e487b7100000000000000000000000000000000000000000000000000000000600052604160045260246000fd5b61041e826103d5565b810181811067ffffffffffffffff8211171561043d5761043c6103e6565b5b80604052505050565b60006104506103b7565b905061045c8282610415565b919050565b600067ffffffffffffffff82111561047c5761047b6103e6565b5b610485826103d5565b9050602081019050919050565b82818337600083830152505050565b60006104b46104af84610461565b610446565b9050828152602081018484840111156104d0576104cf6103d0565b5b6104db848285610492565b509392505050565b600082601f8301126104f8576104f76103cb565b5b81356105088482602086016104a1565b91505092915050565b600060208284031215610527576105266103c1565b5b600082013567ffffffffffffffff811115610545576105446103c6565b5b610551848285016104e3565b91505092915050565b61056381610383565b811461056e57600080fd5b50565b6000813590506105808161055a565b92915050565b60006020828403121561059c5761059b6103c1565b5b60006105aa84828501610571565b91505092915050565b600081519050919050565b600082825260208201905092915050565b60005b838110156105ed5780820151818401526020810190506105d2565b838111156105fc576000848401525b50505050565b600061060d826105b3565b61061781856105be565b93506106278185602086016105cf565b610630816103d5565b840191505092915050565b600060208201905081810360008301526106558184610602565b905092915050565b7f4e487b7100000000000000000000000000000000000000000000000000000000600052602260045260246000fd5b600060028204905060018216806106a457607f821691505b602082108114156106b8576106b761065d565b5b5091905056fea2646970667358221220bc4e6236c11fd7d0cdfe4049d0b43eeccdff3eb97f911fd3d61c2d9ea9984cb564736f6c634300080c0033",
  "immutableReferences": {},
  "source": "pragma solidity >=0.4.22 <0.9.0;\ncontract HelloWorld {\n    bytes32 public fooStore;\n    string public setMessage = \"Hello Solidity\";\n    function sayHello() public pure returns(string memory){\n        return(\"hello world\");\n    }\n    function setText(string memory _setText) public {\n        setMessage = _setText;\n    }\n    function getText() public view returns(string memory) {\n        return(setMessage);\n    }\n      // event logFoo(bytes32 foo);\n    function sendFoo(bytes32 foo) public {\n        fooStore= foo;\n        // logFoo(foo);\n    }\n    function getFoo() public view returns(bytes32) {\n        return(fooStore);\n    }\n}",
  "sourcePath": "/Users/pinkyjain/Downloads/BLOCKCHAIN/truffle-ropsten-dapp/contracts/HelloWorld.sol",
  "compiler": {
    "name": "solc",
    "version": "0.8.12+commit.f00d7308.Emscripten.clang"
  },
  "schemaVersion": "3.4.4",
  "updatedAt": "2022-02-19T14:14:24.747Z",
  "networkType": "ethereum",
  "devdoc": {
    "kind": "dev",
    "methods": {},
    "version": 1
  },
  "userdoc": {
    "kind": "user",
    "methods": {},
    "version": 1
  }
}